{
  "contractName": "ERC20",
  "abi": [
    {
      "constant": true,
      "inputs": [],
      "name": "_contractowner",
      "outputs": [
        {
          "name": "",
          "type": "address"
        }
      ],
      "payable": false,
      "stateMutability": "view",
      "type": "function"
    },
    {
      "inputs": [],
      "payable": false,
      "stateMutability": "nonpayable",
      "type": "constructor"
    },
    {
      "anonymous": false,
      "inputs": [
        {
          "indexed": true,
          "name": "from",
          "type": "address"
        },
        {
          "indexed": true,
          "name": "to",
          "type": "address"
        },
        {
          "indexed": false,
          "name": "value",
          "type": "uint256"
        }
      ],
      "name": "Transfer",
      "type": "event"
    },
    {
      "anonymous": false,
      "inputs": [
        {
          "indexed": true,
          "name": "owner",
          "type": "address"
        },
        {
          "indexed": true,
          "name": "spender",
          "type": "address"
        },
        {
          "indexed": false,
          "name": "value",
          "type": "uint256"
        }
      ],
      "name": "Approval",
      "type": "event"
    },
    {
      "constant": false,
      "inputs": [
        {
          "name": "ad",
          "type": "address"
        }
      ],
      "name": "AddWhitelist",
      "outputs": [],
      "payable": false,
      "stateMutability": "nonpayable",
      "type": "function"
    },
    {
      "constant": true,
      "inputs": [
        {
          "name": "ad",
          "type": "address"
        }
      ],
      "name": "SeeIfInWhitelist",
      "outputs": [
        {
          "name": "",
          "type": "bool"
        }
      ],
      "payable": false,
      "stateMutability": "view",
      "type": "function"
    },
    {
      "constant": false,
      "inputs": [
        {
          "name": "ad",
          "type": "address"
        }
      ],
      "name": "DeleteWhitelist",
      "outputs": [],
      "payable": false,
      "stateMutability": "nonpayable",
      "type": "function"
    },
    {
      "constant": true,
      "inputs": [],
      "name": "totalSupply",
      "outputs": [
        {
          "name": "",
          "type": "uint256"
        }
      ],
      "payable": false,
      "stateMutability": "view",
      "type": "function"
    },
    {
      "constant": true,
      "inputs": [],
      "name": "ticker",
      "outputs": [
        {
          "name": "",
          "type": "string"
        }
      ],
      "payable": false,
      "stateMutability": "view",
      "type": "function"
    },
    {
      "constant": true,
      "inputs": [],
      "name": "decimal",
      "outputs": [
        {
          "name": "",
          "type": "uint256"
        }
      ],
      "payable": false,
      "stateMutability": "view",
      "type": "function"
    },
    {
      "constant": true,
      "inputs": [
        {
          "name": "owner",
          "type": "address"
        }
      ],
      "name": "balanceOf",
      "outputs": [
        {
          "name": "",
          "type": "uint256"
        }
      ],
      "payable": false,
      "stateMutability": "view",
      "type": "function"
    },
    {
      "constant": true,
      "inputs": [
        {
          "name": "owner",
          "type": "address"
        },
        {
          "name": "spender",
          "type": "address"
        }
      ],
      "name": "allowance",
      "outputs": [
        {
          "name": "",
          "type": "uint256"
        }
      ],
      "payable": false,
      "stateMutability": "view",
      "type": "function"
    },
    {
      "constant": false,
      "inputs": [
        {
          "name": "to",
          "type": "address"
        },
        {
          "name": "value",
          "type": "uint256"
        }
      ],
      "name": "transfer",
      "outputs": [
        {
          "name": "",
          "type": "bool"
        }
      ],
      "payable": false,
      "stateMutability": "nonpayable",
      "type": "function"
    },
    {
      "constant": false,
      "inputs": [
        {
          "name": "spender",
          "type": "address"
        },
        {
          "name": "value",
          "type": "uint256"
        }
      ],
      "name": "approve",
      "outputs": [
        {
          "name": "",
          "type": "bool"
        }
      ],
      "payable": false,
      "stateMutability": "nonpayable",
      "type": "function"
    },
    {
      "constant": false,
      "inputs": [
        {
          "name": "from",
          "type": "address"
        },
        {
          "name": "to",
          "type": "address"
        },
        {
          "name": "value",
          "type": "uint256"
        }
      ],
      "name": "transferFrom",
      "outputs": [
        {
          "name": "",
          "type": "bool"
        }
      ],
      "payable": false,
      "stateMutability": "nonpayable",
      "type": "function"
    },
    {
      "constant": false,
      "inputs": [
        {
          "name": "spender",
          "type": "address"
        },
        {
          "name": "addedValue",
          "type": "uint256"
        }
      ],
      "name": "increaseAllowance",
      "outputs": [
        {
          "name": "",
          "type": "bool"
        }
      ],
      "payable": false,
      "stateMutability": "nonpayable",
      "type": "function"
    },
    {
      "constant": false,
      "inputs": [
        {
          "name": "spender",
          "type": "address"
        },
        {
          "name": "subtractedValue",
          "type": "uint256"
        }
      ],
      "name": "decreaseAllowance",
      "outputs": [
        {
          "name": "",
          "type": "bool"
        }
      ],
      "payable": false,
      "stateMutability": "nonpayable",
      "type": "function"
    }
  ],
  "bytecode": "0x608060405234801561001057600080fd5b506040805190810160405280600381526020017f43415400000000000000000000000000000000000000000000000000000000008152506005908051906020019061005c92919061014e565b50600560068190555064174876e80060048190555033600760006101000a81548173ffffffffffffffffffffffffffffffffffffffff021916908373ffffffffffffffffffffffffffffffffffffffff1602179055506004546000803373ffffffffffffffffffffffffffffffffffffffff1673ffffffffffffffffffffffffffffffffffffffff168152602001908152602001600020819055503373ffffffffffffffffffffffffffffffffffffffff1660007fddf252ad1be2c89b69c2b068fc378daa952ba7f163c4a11628f55a4df523b3ef6004546040518082815260200191505060405180910390a36101f3565b828054600181600116156101000203166002900490600052602060002090601f016020900481019282601f1061018f57805160ff19168380011785556101bd565b828001600101855582156101bd579182015b828111156101bc5782518255916020019190600101906101a1565b5b5090506101ca91906101ce565b5090565b6101f091905b808211156101ec5760008160009055506001016101d4565b5090565b90565b610f74806102026000396000f3006080604052600436106100d0576000357c0100000000000000000000000000000000000000000000000000000000900463ffffffff168063095ea7b3146100d557806318160ddd1461013a57806323b872dd146101655780632779b6f0146101ea578063395093511461024157806370a08231146102a657806376809ce3146102fd5780637b511f4d146103285780638ba47bdd1461036b5780639c8b7496146103fb578063a457c2d714610456578063a9059cbb146104bb578063dd62ed3e14610520578063e463fa6b14610597575b600080fd5b3480156100e157600080fd5b50610120600480360381019080803573ffffffffffffffffffffffffffffffffffffffff169060200190929190803590602001909291905050506105da565b604051808215151515815260200191505060405180910390f35b34801561014657600080fd5b5061014f6105f1565b6040518082815260200191505060405180910390f35b34801561017157600080fd5b506101d0600480360381019080803573ffffffffffffffffffffffffffffffffffffffff169060200190929190803573ffffffffffffffffffffffffffffffffffffffff169060200190929190803590602001909291905050506105fb565b604051808215151515815260200191505060405180910390f35b3480156101f657600080fd5b506101ff61076a565b604051808273ffffffffffffffffffffffffffffffffffffffff1673ffffffffffffffffffffffffffffffffffffffff16815260200191505060405180910390f35b34801561024d57600080fd5b5061028c600480360381019080803573ffffffffffffffffffffffffffffffffffffffff16906020019092919080359060200190929190505050610790565b604051808215151515815260200191505060405180910390f35b3480156102b257600080fd5b506102e7600480360381019080803573ffffffffffffffffffffffffffffffffffffffff169060200190929190505050610835565b6040518082815260200191505060405180910390f35b34801561030957600080fd5b5061031261087d565b6040518082815260200191505060405180910390f35b34801561033457600080fd5b50610369600480360381019080803573ffffffffffffffffffffffffffffffffffffffff169060200190929190505050610887565b005b34801561037757600080fd5b506103806108e2565b6040518080602001828103825283818151815260200191508051906020019080838360005b838110156103c05780820151818401526020810190506103a5565b50505050905090810190601f1680156103ed5780820380516001836020036101000a031916815260200191505b509250505060405180910390f35b34801561040757600080fd5b5061043c600480360381019080803573ffffffffffffffffffffffffffffffffffffffff169060200190929190505050610984565b604051808215151515815260200191505060405180910390f35b34801561046257600080fd5b506104a1600480360381019080803573ffffffffffffffffffffffffffffffffffffffff169060200190929190803590602001909291905050506109da565b604051808215151515815260200191505060405180910390f35b3480156104c757600080fd5b50610506600480360381019080803573ffffffffffffffffffffffffffffffffffffffff16906020019092919080359060200190929190505050610a7f565b604051808215151515815260200191505060405180910390f35b34801561052c57600080fd5b50610581600480360381019080803573ffffffffffffffffffffffffffffffffffffffff169060200190929190803573ffffffffffffffffffffffffffffffffffffffff169060200190929190505050610af5565b6040518082815260200191505060405180910390f35b3480156105a357600080fd5b506105d8600480360381019080803573ffffffffffffffffffffffffffffffffffffffff169060200190929190505050610b7c565b005b60006105e7338484610bd7565b6001905092915050565b6000600454905090565b600060011515600360008673ffffffffffffffffffffffffffffffffffffffff1673ffffffffffffffffffffffffffffffffffffffff16815260200190815260200160002060009054906101000a900460ff16151514151561065c57600080fd5b60011515600360008573ffffffffffffffffffffffffffffffffffffffff1673ffffffffffffffffffffffffffffffffffffffff16815260200190815260200160002060009054906101000a900460ff1615151415156106bb57600080fd5b6106c6848484610d3a565b61075f843361075a85600160008a73ffffffffffffffffffffffffffffffffffffffff1673ffffffffffffffffffffffffffffffffffffffff16815260200190815260200160002060003373ffffffffffffffffffffffffffffffffffffffff1673ffffffffffffffffffffffffffffffffffffffff16815260200190815260200160002054610f0690919063ffffffff16565b610bd7565b600190509392505050565b600760009054906101000a900473ffffffffffffffffffffffffffffffffffffffff1681565b600061082b338461082685600160003373ffffffffffffffffffffffffffffffffffffffff1673ffffffffffffffffffffffffffffffffffffffff16815260200190815260200160002060008973ffffffffffffffffffffffffffffffffffffffff1673ffffffffffffffffffffffffffffffffffffffff16815260200190815260200160002054610f2790919063ffffffff16565b610bd7565b6001905092915050565b60008060008373ffffffffffffffffffffffffffffffffffffffff1673ffffffffffffffffffffffffffffffffffffffff168152602001908152602001600020549050919050565b6000600654905090565b6000600360008373ffffffffffffffffffffffffffffffffffffffff1673ffffffffffffffffffffffffffffffffffffffff16815260200190815260200160002060006101000a81548160ff02191690831515021790555050565b606060058054600181600116156101000203166002900480601f01602080910402602001604051908101604052809291908181526020018280546001816001161561010002031660029004801561097a5780601f1061094f5761010080835404028352916020019161097a565b820191906000526020600020905b81548152906001019060200180831161095d57829003601f168201915b5050505050905090565b6000600360008373ffffffffffffffffffffffffffffffffffffffff1673ffffffffffffffffffffffffffffffffffffffff16815260200190815260200160002060009054906101000a900460ff169050919050565b6000610a753384610a7085600160003373ffffffffffffffffffffffffffffffffffffffff1673ffffffffffffffffffffffffffffffffffffffff16815260200190815260200160002060008973ffffffffffffffffffffffffffffffffffffffff1673ffffffffffffffffffffffffffffffffffffffff16815260200190815260200160002054610f0690919063ffffffff16565b610bd7565b6001905092915050565b600060011515600360008573ffffffffffffffffffffffffffffffffffffffff1673ffffffffffffffffffffffffffffffffffffffff16815260200190815260200160002060009054906101000a900460ff161515141515610ae057600080fd5b610aeb338484610d3a565b6001905092915050565b6000600160008473ffffffffffffffffffffffffffffffffffffffff1673ffffffffffffffffffffffffffffffffffffffff16815260200190815260200160002060008373ffffffffffffffffffffffffffffffffffffffff1673ffffffffffffffffffffffffffffffffffffffff16815260200190815260200160002054905092915050565b6001600360008373ffffffffffffffffffffffffffffffffffffffff1673ffffffffffffffffffffffffffffffffffffffff16815260200190815260200160002060006101000a81548160ff02191690831515021790555050565b600073ffffffffffffffffffffffffffffffffffffffff168273ffffffffffffffffffffffffffffffffffffffff1614151515610c1357600080fd5b600073ffffffffffffffffffffffffffffffffffffffff168373ffffffffffffffffffffffffffffffffffffffff1614151515610c4f57600080fd5b80600160008573ffffffffffffffffffffffffffffffffffffffff1673ffffffffffffffffffffffffffffffffffffffff16815260200190815260200160002060008473ffffffffffffffffffffffffffffffffffffffff1673ffffffffffffffffffffffffffffffffffffffff168152602001908152602001600020819055508173ffffffffffffffffffffffffffffffffffffffff168373ffffffffffffffffffffffffffffffffffffffff167f8c5be1e5ebec7d5bd14f71427d1e84f3dd0314c0f7b2291e5b200ac8c7c3b925836040518082815260200191505060405180910390a3505050565b600073ffffffffffffffffffffffffffffffffffffffff168273ffffffffffffffffffffffffffffffffffffffff1614151515610d7657600080fd5b610dc7816000808673ffffffffffffffffffffffffffffffffffffffff1673ffffffffffffffffffffffffffffffffffffffff16815260200190815260200160002054610f0690919063ffffffff16565b6000808573ffffffffffffffffffffffffffffffffffffffff1673ffffffffffffffffffffffffffffffffffffffff16815260200190815260200160002081905550610e5a816000808573ffffffffffffffffffffffffffffffffffffffff1673ffffffffffffffffffffffffffffffffffffffff16815260200190815260200160002054610f2790919063ffffffff16565b6000808473ffffffffffffffffffffffffffffffffffffffff1673ffffffffffffffffffffffffffffffffffffffff168152602001908152602001600020819055508173ffffffffffffffffffffffffffffffffffffffff168373ffffffffffffffffffffffffffffffffffffffff167fddf252ad1be2c89b69c2b068fc378daa952ba7f163c4a11628f55a4df523b3ef836040518082815260200191505060405180910390a3505050565b600080838311151515610f1857600080fd5b82840390508091505092915050565b6000808284019050838110151515610f3e57600080fd5b80915050929150505600a165627a7a723058205910159f41139fdb6bfb9c117a55ab55b4089bb7f18fd212774436cf1661df800029",
  "source": "pragma solidity ^0.4.25;\r\n\r\n\r\nimport \"./IERC20.sol\";\r\nimport \"./SafeMath.sol\";\r\n\r\ncontract ERC20 is IERC20 {\r\n\tusing SafeMath for uint256;\r\n\tmapping (address => uint256) private _balances;\r\n\tmapping (address => mapping (address => uint256)) private _allowed;\r\n\tmapping (address => uint256) private _levelOfPayment;\r\n\t\r\n\tmapping (address => bool) _whitelist;\r\n\t\r\n\t\r\n\tuint256 private _totalSupply;\r\n\tstring private _ticker;\r\n\tuint256 private _decimal;\r\n\taddress public _contractowner;\r\n\t\r\n\tconstructor() public {  \r\n\t\t_ticker = \"CAT\";   \r\n\t\t_decimal = 5;  \r\n\t\t_totalSupply = 100000000000;  \r\n  \r\n\t\t_contractowner = msg.sender;  \r\n\t\t_balances[msg.sender] = _totalSupply;  \r\n  \r\n\t\temit Transfer(0x0, msg.sender, _totalSupply);  \r\n\t}\r\n\t\r\n\tfunction AddWhitelist(address ad){\r\n\t\t_whitelist[ad]=true;\r\n\t}\r\n\t\r\n\tfunction SeeIfInWhitelist(address ad) public view returns (bool){\r\n\t\treturn _whitelist[ad];\r\n\t}\r\n\t\r\n\tfunction DeleteWhitelist(address ad){\r\n\t\t_whitelist[ad]=false;\r\n\t}\r\n\t\r\n\tfunction totalSupply() public view returns (uint256) {\r\n        return _totalSupply;\r\n    }\r\n\t\r\n\tfunction ticker() public view returns (string) {\r\n        return _ticker;\r\n    }\r\n\t\r\n\tfunction decimal() public view returns (uint256) {\r\n        return _decimal;\r\n    }\r\n\t\r\n\tfunction balanceOf(address owner) public view returns (uint256) {\r\n\r\n        return _balances[owner];\r\n    }\r\n\t\r\n\tfunction allowance(address owner, address spender) public view returns (uint256) {\r\n\r\n\t\treturn _allowed[owner][spender];\r\n    }\r\n\t\r\n\tfunction transfer(address to, uint256 value) public returns (bool) {\r\n\t\trequire(_whitelist[to]==true);\r\n\t\t_transfer(msg.sender, to, value);\r\n        return true;\r\n    }\r\n\t\r\n\tfunction approve(address spender, uint256 value) public returns (bool) {\r\n\r\n        _approve(msg.sender, spender, value);\r\n        return true;\r\n    }\r\n\t\r\n\tfunction transferFrom(address from, address to, uint256 value) public returns (bool) {\r\n\r\n        require(_whitelist[from]==true);\r\n\t\trequire(_whitelist[to]==true);\r\n\t\t_transfer(from, to, value);\r\n        _approve(from, msg.sender, _allowed[from][msg.sender].sub(value));\r\n        return true;\r\n    }\r\n\t\r\n\tfunction increaseAllowance(address spender, uint256 addedValue) public returns (bool) {\r\n\r\n        _approve(msg.sender, spender, _allowed[msg.sender][spender].add(addedValue));\r\n        return true;\r\n    }\r\n\t\r\n\tfunction decreaseAllowance(address spender, uint256 subtractedValue) public returns (bool) {\r\n\r\n        _approve(msg.sender, spender, _allowed[msg.sender][spender].sub(subtractedValue));\r\n        return true;\r\n    }\r\n\t\r\n\tfunction _transfer(address from, address to, uint256 value) internal {\r\n\r\n        require(to != address(0));\r\n        _balances[from] = _balances[from].sub(value);\r\n        _balances[to] = _balances[to].add(value);\r\n        emit Transfer(from, to, value);\r\n    }\r\n\t\r\n\t\r\n\tfunction _mint(address account, uint256 value) internal {\r\n\r\n        require(account != address(0));\r\n\r\n        _totalSupply = _totalSupply.add(value);\r\n        _balances[account] = _balances[account].add(value);\r\n        emit Transfer(address(0), account, value);\r\n    }\r\n\t\r\n\t\r\n\tfunction _burn(address account, uint256 value) internal {\r\n\r\n        require(account != address(0));\r\n\r\n        _totalSupply = _totalSupply.sub(value);\r\n        _balances[account] = _balances[account].sub(value);\r\n        emit Transfer(account, address(0), value);\r\n    }\r\n\t\r\n\tfunction _approve(address owner, address spender, uint256 value) internal {\r\n\r\n        require(spender != address(0));\r\n        require(owner != address(0));\r\n\r\n        _allowed[owner][spender] = value;\r\n        emit Approval(owner, spender, value);\r\n\r\n    }\r\n\t\r\n\tfunction _burnFrom(address account, uint256 value) internal {\r\n        _burn(account, value);\r\n        _approve(account, msg.sender, _allowed[account][msg.sender].sub(value));\r\n\r\n    }\r\n\t\r\n\t\r\n}\r\n\t",
  "sourcePath": "C:\\Users\\irisj\\Documents\\ESILV\\Annee 4\\Blockchain Programming\\TD5\\MonToken\\contracts\\ERC20.sol",
  "compiler": {
    "name": "solc",
    "version": "0.4.25+commit.59dbf8f1.Emscripten.clang"
  },
  "schemaVersion": "2.0.2",
  "updatedAt": "2019-03-10T15:39:11.896Z"
}